:100000000C944C000C946B000C946B000C946B00E3
:100010000C946B000C946B000C946B000C946B00B4
:100020000C946B000C946B000C946B000C946B00A4
:100030000C946B000C946B000C946B000C940512E8
:100040000C946B000C946B000C946B000C946B0084
:100050000C946B000C946B000C946B000C946B0074
:100060000C946B000C946B000C946B000C946B0064
:100070000C946B000C946B000C946B000C946B0054
:100080000C946B000C9452050C946B000000010062
:10009000080040000001000411241FBEC0E0D0E1B0
:1000A000DEBFCDBF12E0A0E0B1E0E8E4F7E200E09F
:1000B0000BBF02C007900D92AA3CB107D9F714E01C
:1000C000AAECB2E001C01D92A438B107E1F70E948A
:1000D00030120C94A2130C940000E199FECF8EBB59
:1000E0009FBB6DBBE29AE19A08959F92AF92BF9237
:1000F000CF92DF92EF92FF920F931F93CF93DF93F4
:10010000CDB7DEB7C850D2400FB6F894DEBF0FBEF1
:10011000CDBF81E089831A821B828C8388E090E0C6
:100120009093CB028093CA02CE0109960E94B3013C
:10013000082F10E0085F1F4FC80133E096958795A0
:100140003A95E1F78D839FB6F89449E0A42EB12C3F
:10015000AC0EBD1E6501EE24FF240AC0F6016191BC
:100160006F018E0D9F1D0E946D000894E11CF11C13
:100170008091CA029091CB029801281B390BE2169C
:10018000F30660F31093CB020093CA02CE010996E6
:100190000E94F0017801E80EF11C650100E010E01A
:1001A00009C0F60161916F01800F911F0E946D00DF
:1001B0000F5F1F4F8091CA029091CB029701281BBD
:1001C000390B0217130768F3C70123E0969587954B
:1001D0002A95E1F78E83F092CB02E092CA02CE011B
:1001E00009960E942D02E80EF11C650100E010E066
:1001F00009C0F60161916F01800F911F0E946D008F
:100200000F5F1F4F8091CA029091CB029701281B6C
:10021000390B0217130768F3F092CB02E092CA027F
:10022000CE0109960E949702E80EF11C00E010E052
:1002300009C0F50161915F01800F911F0E946D005F
:100240000F5F1F4F8091CA029091CB029701281B2C
:10025000390B0217130768F3F092CB02E092CA023F
:100260001F82CE01019667E00E945C0888877E01AC
:100270000894E11CF11C00E010E0F70161917F019E
:10028000C8010E946D000F5F1F4F08301105A9F7CC
:100290009FBEC85FDD4F0FB6F894DEBF0FBECDBF67
:1002A000DF91CF911F910F91FF90EF90DF90CF9052
:1002B000BF90AF909F900895E199FECF8EBB9FBBFA
:1002C000E09A8DB3089508950F931F93CF93982FBD
:1002D000262F8A01CFB7F89480E5692F70E042E0BD
:1002E0000E94000795980000000000000000000038
:1002F00000000000949880EA0E941606959800007D
:1003000000000000000000000000000000000000ED
:1003100000000000000000000000949A00000000AF
:1003200000000000000000000000000000000000CD
:100330000000000000000000959A0000000000008E
:1003400000000000000000000000000000000000AD
:10035000000000000000882309F4C4CFCFBFCF9174
:100360001F910F9108950F931F93CF93DF93CDB7F4
:10037000DEB7AE970FB6F894DEBF0FBECDBF8C01CF
:10038000DE011196E0E0F1E08EE201900D928150E5
:10039000E1F7F801E80FF11D10828F5F8038C9F78F
:1003A00080E18A8382ED8DA7DE011196F8018EE24D
:1003B0009D9191938150E1F7C8016FE70E945C081D
:1003C000F801E158FF4F808380E8AE960FB6F894AD
:1003D000DEBF0FBECDBFDF91CF911F910F9108956A
:1003E0000F931F93CF93DF93CDB7DEB7AC970FB6C4
:1003F000F894DEBF0FBECDBF8C01DE011196EEE298
:10040000F1E08CE201900D928150E1F7F801E80FE4
:10041000F11D10828F5F8038C9F780E18A8384EDF7
:100420008BA7DE011196F8018CE29D91919381508A
:10043000E1F7C8016FE70E945C08F801E158FF4F3F
:10044000808380E8AC960FB6F894DEBF0FBECDBFB8
:10045000DF91CF911F910F910895CF92DF92EF928C
:10046000FF920F931F93CF93DF93CDB7DEB76397C0
:100470000FB6F894DEBF0FBECDBF082FE92ECDB664
:10048000DEB6DE011596EAE5F1E08FE001900D920F
:100490008150E1F71F818DB79EB7811B91090FB67F
:1004A000F8949EBF0FBE8DBF2DB73EB72F5F3F4F55
:1004B000C90145E0F42EF10EDE011A96422FF90132
:1004C00002C02D9121932E2F241B2117D0F3612FD1
:1004D0000E945C0888879D8199839E819A831B83F3
:1004E0008C83CE01019664E00E945C088987DE015E
:1004F0001596E02FFE2D02C08D9181938E2F801BCB
:100500008F15D0F38F2D0FB6F894DEBE0FBECDBE83
:1005100063960FB6F894DEBF0FBECDBFDF91CF91CB
:100520001F910F91FF90EF90DF90CF900895CF92A1
:10053000DF92EF92FF920F931F93CF93DF93CDB78C
:10054000DEB769970FB6F894DEBF0FBECDBF082F98
:10055000E92ECDB6DEB6DE011596E9E6F1E085E1DD
:1005600001900D928150E1F71F818DB79EB7811BDD
:1005700091090FB6F8949EBF0FBE8DBF2DB73EB741
:100580002F5F3F4FC90155E0F52EF10EDE011A969F
:10059000422FF90102C02D9121932E2F241B2117E8
:1005A000D0F3612F0E945C0888879D8199839E818A
:1005B0009A831B838C83CE01019664E00E945C08C1
:1005C0008987DE011596E02FFE2D02C08D91819363
:1005D0008E2F801B8F15D0F38F2D0FB6F894DEBEB3
:1005E0000FBECDBE69960FB6F894DEBF0FBECDBF6D
:1005F000DF91CF911F910F91FF90EF90DF90CF90FF
:10060000089514BA15BA80E882B913B8109261003F
:100610001092620010926400109265000895FF929B
:100620000F931F93CF93DF930F92CDB7DEB7823036
:1006300031F0833041F061E070E08AE207C060E0B1
:1006400070E08AE103C060E070E08EE4FFB6F894E9
:1006500041E021E08E010F5F1F4F0E946507FFBE42
:1006600089810F90DF91CF911F910F91FF90089595
:1006700081E00E940F038093A20380918304823063
:1006800019F481E00E941A0F82E00E940F03809308
:10069000A80380918304823011F40E941A0F83E032
:1006A0000E940F038093AE0380918304823019F47B
:1006B00083E00E941A0F80E00E9400048093B4033C
:1006C0000895FA01882319F4633018F009C08130C5
:1006D00049F084E0808382E08183828383E008950F
:1006E0008FEF08958FEF08958230E1F0833028F482
:1006F000882351F0813041F50EC08530D1F086302D
:10070000F9F0843009F51EC0AF9884E690E00E94AD
:10071000D211AF9A17C0AA9884E690E00E94D21135
:10072000AA9A10C0AB9884E690E00E94D211AB9ACE
:1007300009C0AF9AAE9A8AE090E00E94D21102C03E
:10074000AF98AE9880E008958FEF089581E0909182
:10075000B403913908F480E0089508950895089548
:1007600008950895089508950895089580E00895DE
:1007700008950895089580E00895089508950895CE
:10078000089580E0089580E0089580E0089580E075
:1007900008953798089596B1987F982B96B9089543
:1007A00097B18295880F880F807C9F73892B87B9BA
:1007B0000895379A359A85E00E94CB0380E00E9425
:1007C000D0033D9A089597B18F71907E892B87B998
:1007D0000895349A369A089586B18074089597B131
:1007E0008F71907E892B87B9349A369A3699FECFCD
:1007F00084B195B1392F20E090E0822B932B08959E
:1008000085B10895FC0188E2808381E081831282B2
:1008100083E00895CF92DF92EF92FF920F931F93A0
:10082000CF93DF930F92CDB7DEB7FC01673120F590
:10083000318120E0008110E0022B132B7801C801E8
:10084000860F911D21E089329207B0F4FA0161937D
:100850006F010BC0C70169830E945C01F60181939F
:100860006F010894E11CF11C69818E2D801B861795
:1008700088F3862F8F5F01C08FEF0F90DF91CF91AC
:100880001F910F91FF90EF90DF90CF900895CF923E
:10089000DF92EF92FF920F931F93CF93DF930F920C
:1008A000CDB7DEB7FC01F62E318120E0C080DD241B
:1008B000C22AD32AC601840F911D21E089329207F2
:1008C000B0F4EFB6F894062F172F0BC0F801619122
:1008D0008F01C60149830E946D000894C11CD11C80
:1008E0004981802F8F19841788F3EFBE01C04FEF25
:1008F000842F0F90DF91CF911F910F91FF90EF9078
:10090000DF90CF90089580E0089580E00895FC0185
:1009100082E3808381E08183128283E008958130C5
:1009200049F0813028F0823041F0833079F407C0FB
:10093000AC9A01C0AC98AD9A04C0AC9A01C0AC9816
:10094000AD9882E00E94740380E008958FEF0895CF
:10095000CF93C82F179905C0179A8AE090E00E949C
:10096000D211CC2311F01F9A01C01F98CF91089586
:10097000CF93C82F159905C0159A8AE090E00E9480
:10098000D211CC2311F01D9A01C01D98CF9108956A
:10099000BC01809171008E7F809371008091710005
:1009A0008D7F8093710080E991E00E948E13603109
:1009B00028F070E060517040759567956093700005
:1009C0000895909A919A1092CE021092CD0284E1ED
:1009D00090E00E94C804E4E7F0E0808184608083B6
:1009E0001092CC02808181608083808180648083CA
:1009F000089591E0662309F490E08E7F892B80931F
:100A0000720008959093CE028093CD020895E4E79A
:100A1000F0E080818F70806A80830895E4E7F0E0E1
:100A200080818F70806D808308958091740087FF2E
:100A3000FCCF089580937300E4E7F0E080818F702D
:100A4000806880830895882329F0809174008F70D6
:100A5000806C04C0809174008F70806880937400F3
:100A60000895809173000895809171000895909188
:100A7000CC029923E1F792E09093CC028E7F809391
:100A8000CF02A0EDB2E0FA0102C081918D938E2FCA
:100A9000841B8617D0F31092F0026093F1020E943B
:100AA000070508951F920F920FB60F920BB60F9283
:100AB00011242F933F934F935F936F937F938F9363
:100AC0009F93AF93BF93EF93FF9380917100887FC3
:100AD000803609F454C08136D0F48831B9F18931B7
:100AE00040F4883081F1803171F1882309F480C0AD
:100AF00087C0883259F1893220F4803209F080C0F1
:100B000025C0803319F1883309F07AC033C08038AA
:100B100009F448C0813840F4803789F1883779F189
:100B2000883609F06DC02BC08039E1F1813920F49D
:100B3000883809F065C046C0883909F443C0803A56
:100B400009F05EC043C08091CF020EC09091F002C8
:100B50008091F102981758F4E92FF0E0E053FD4F2F
:100B600080819F5F9093F0020E941A0549C00E9405
:100B70000E0544C0809174008F7080683DC085E090
:100B80008093CC021092F202809173008093F30262
:100B900081E08093F202809174008F70806C80936A
:100BA00074002EC08091F20290917300E82FF0E063
:100BB000ED50FD4F90838F5F8093F202803210F4EE
:100BC0008FEF01C080E00E9423051AC0809174005D
:100BD0008F70806C80937400E091CD02F091CE0212
:100BE000309761F08091F20263EF72E0099506C0E0
:100BF000809174008F70806D809374001092CC028D
:100C0000FF91EF91BF91AF919F918F917F916F91E4
:100C10005F914F913F912F910F900BBE0F900FBEA0
:100C20000F901F9018958091CC02089527E030E036
:100C300090E0AC01022E02C0559547950A94E2F768
:100C400040FF02C0959A01C0959800000000000086
:100C50000000000000000000000000000000000094
:100C6000000000000000949A000000000000000056
:100C70000000000000000000000000000000000074
:100C8000000000009498215030404FEF2F3F340770
:100C900009F0CFCF959A8D98000000000000000069
:100CA0000000000000000000000000000000000044
:100CB00000000000949A90B30000000000000000C3
:100CC0000000000000000000000000000000000024
:100CD0000000000094988D9A0000000000000000C1
:100CE0000000000000000000000000000000000004
:100CF0000000000081E095FD80E00895AC01959A28
:100D00008D9828E030E080E0000000000000000046
:100D100000000000000000000000000000000000D3
:100D200000000000949A90B3880F95FD8160000048
:100D300000000000000000000000000000000000B3
:100D40000000000000000000000094982150304096
:100D500009F0DACF8D9A4115510511F0959A01C02D
:100D60009598000000000000000000000000000056
:100D70000000000000000000000000000000949A45
:100D80000000000000000000000000000000000063
:100D90000000000000000000000000009498959AF8
:100DA00008958D9A8C9A0000000000000000000059
:100DB0000000000000000000000000000000000033
:100DC0000000949A000000000000000000000000F5
:100DD0000000000000000000000000000000000013
:100DE000959A0000000000000000000000000000D4
:100DF0000000000000000000000000000000089556
:100E0000EF92FF920F931F93CF93DF9300D0CDB754
:100E1000DEB7F62EE22E95980000000000000000DC
:100E20000000000000009498880F49837A830E9494
:100E3000160649817A81423021F4872F0E941606D6
:100E400002C0413051F48F2D0E94160606C0F801F1
:100E500081918F010E941606EA94EE20C1F79598C1
:100E60000000000000000000000000000000000082
:100E7000000000000000000000000000949A000044
:100E80000000000000000000000000000000000062
:100E900000000000000000000000959A0000000023
:100EA0000000000000000000000000000000000042
:100EB00000000000000000000F900F90DF91CF9124
:100EC0001F910F91FF90EF900895AF92BF92CF9234
:100ED000DF92FF920F931F93CF93DF9300D0CDB794
:100EE000DEB7A62EF22EC82ECC0C9598000000007E
:100EF000000000000000000000009498423041F41F
:100F00008C2D4A8379830E9416067981872F04C02D
:100F1000413041F48C2D4A830E9416068A2D0E948E
:100F200016064A81000000000000000000000000DA
:100F300000000000000000000000000000000000B1
:100F4000442309F426C0949A000000000000000029
:100F50000000000000000000000000000000000091
:100F60000000000095980000000000000000000054
:100F70000000000094980000000000000000000045
:100F80000000000000000000000000000000000061
:100F900000008C2D81600E9416066801AA24BB24E3
:100FA0000F2D10E0015010400FC081E090E0A0161E
:100FB000B10611F080E090E00E947E06F601819378
:100FC0006F010894A11CB11CAF1478F39598000030
:100FD0000000000000000000000000000000000011
:100FE00000000000000000000000949A00000000D3
:100FF00000000000000000000000000000000000F1
:101000000000000000000000959A000000000000B1
:1010100000000000000000000000000000000000D0
:101020000000000000000F900F90DF91CF911F9102
:101030000F91FF90DF90CF90BF90AF900895909167
:10104000BA0398609093BA039091BA0390FD11C0CF
:10105000A8E1B3E0FB0102C091919D939E2F961BE6
:101060009817D0F3809338038091BA0381608093FE
:10107000BA03089580935C04089510925B0380E89E
:1010800080935C0381E080935D0310925E0381E5B1
:1010900080935F0389E28093600380E6809361031D
:1010A000109262031092630385E38093640382E1EC
:1010B000809365038BE008959C0180E006C0615039
:1010C000F901E60FF11D9081890F6623C1F7819523
:1010D0000895CF93DF930F92CDB7DEB749830E9477
:1010E0005C084981481B842F0F90DF91CF910895B0
:1010F000FF920F931F93CF93DF93CDB7DEB7A197E6
:101100000FB6F894DEBF0FBECDBFF82E1091580376
:10111000198300913A03202F30E02F5F3F4F220FB9
:10112000331F220F331F80913B038370822B8A83EE
:10113000CE01019662E00E945C088B8380913903A6
:101140008C8380915903880F880F8D8380913C0395
:101150008E83FF820C3219F4188608E001C007E084
:10116000FF20B1F420915A03222391F0EBE5F3E044
:1011700080E009C03191A1E0B0E0AC0FBD1FA90F24
:10118000B11D3C938F5F982F900F821799F7092F0D
:10119000CE010196602F0E945C08E1E0F0E0EC0FC8
:1011A000FD1FE00FF11D8083812F602FAE014E5F88
:1011B0005F4F0E9437058091BA038E7F8093BA03F8
:1011C000A1960FB6F894DEBF0FBECDBFDF91CF91D1
:1011D0001F910F91FF9008951F93CF93DF93D82F06
:1011E000162F8091BA0382FD4DC0C0915C04C0935C
:1011F000760380E18093770386E793E062E00E94C4
:101200005C08809378038091BB038093790380917D
:1012100016038F5F80931603880F880F80937A03DD
:1012200082E080937B0384E080937C032D2F30E069
:10123000F901EE0FFF1FE20FF31FEE0FFF1FE45641
:10124000FC4F828180937D03D0937E0384818093C1
:101250007F03109380038FEF809381038093820339
:1012600086E793E06DE00E945C08809383038C2FF7
:101270006DE047E753E00E9437058091BA03846030
:101280008093BA03DF91CF911F910895AF92CF92CF
:10129000EF920F9310925A0340911303842F90E022
:1012A00030913A03FC01E454FC4F308320913C031D
:1012B000845F9B4FFC012083842F8F5F80931303F7
:1012C0008F3410F0109213033A3009F4B9C03B3058
:1012D00030F4343089F0363009F0CDC107C03C32EB
:1012E00009F4FAC0303309F0C6C1A5C1213009F0B4
:1012F000C2C10E943D0887C1213261F1223240F40F
:101300002130D9F02130A0F0203209F0B4C11CC046
:10131000263209F45BC0273220F4223209F0ABC137
:1013200068C0273209F44BC02D3209F0A4C17CC03B
:1013300080913F0380935C048DC180915C04809315
:101340005B0320935A0386C18BE593E060E00E9423
:10135000A01059C1609143036623F9F08091740392
:101360009091750340913F0350E09C01307042170B
:10137000530709F078C12091400330E0892F992765
:101380002817390709F06FC181E493E040914403C5
:101390002BE533E00E94AB1029C181E493E060E0CB
:1013A000409144032BE533E00E94AB1080935A0335
:1013B0008F3F09F45EC181E0809315034BC180919A
:1013C0003F036BE573E00E94F31034C080913F034C
:1013D00060914003409141032091420300914303F7
:1013E000E0904403C0904503A09046030E947B1107
:1013F00021C08091740390917503019690937503B9
:1014000080937403009731F481E090E0909375032A
:1014100080937403909174038091750390935B03A0
:1014200080935C0382E0EFC080913F036BE573E043
:101430000E94AE1180935A038F3F09F00BC115C172
:10144000213199F0223179F1203109F014C18091D4
:101450003F03813029F48BE593E00E94C103D3C0A0
:101460008BE593E00E940204CEC080913F0381305F
:1014700049F480E493E0609142034BE553E00E941D
:10148000C303C1C080E493E0609142034BE553E0A5
:101490000E940A0480935A038F3F09F4EAC081E056
:1014A00080931403D7C080913F0340913D03435084
:1014B000813039F480E493E062E473E00E94C50374
:1014C00006C080E493E062E473E00E9447048093E6
:1014D0005A0380915A038CC0273009F45CC028302D
:1014E00070F4243021F1253018F42223D9F0C3C040
:1014F000253009F440C0263009F0BDC043C0213179
:1015000009F490C0223138F4283009F467C02D3036
:1015100009F0B1C070C0293109F478C02A3109F04E
:10152000AAC079C08BE593E00E9487046CC08091CB
:101530004003813031F480914103843011F480E024
:10154000A9C0809141030E9474038F3F09F48FC0AA
:1015500080914103843009F07DC080E00E947808CA
:1015600086E00E94740380E062E00E94EC0881E063
:101570008093720491C0809140036BE573E00E94F8
:101580003F0E41C080914003609141034BE553E021
:101590000E944A0E2BC0809140038823A1F48091C1
:1015A0004103882381F480914203882339F4809198
:1015B00072048350823038F083E003C08F3F19F407
:1015C00081E08093720480914003609141034091D7
:1015D0004203209143030E94830D08C08091400381
:1015E000609141034BE553E00E940B0E80935A0338
:1015F0008F3F81F53EC0809141038823D1F58BE573
:1016000093E00E94C91180935A0324C080E060E0F7
:101610000E948504F8CF80913F036BE573E00E9440
:101620008304F1CF809140038130A1F48091410384
:101630000E94B8030FC0213039F480913F030E940B
:101640008F048823B1F418C0223031F480913F0315
:101650000E94A80480E010C0233069F480913F0309
:101660000E94B804F7CF85EC07C08DEC05C08CEC68
:1016700003C089EC01C081EC90911503913051F4C5
:1016800090911403913031F421E030E030939803CD
:10169000209397030E9478080F91EF90CF90AF901E
:1016A0000895FF920F931F93CF93DF938091BA0316
:1016B00080FF70C0C0911A0388E193E062E00E944D
:1016C0005C08C81709F066C0F0903803CF2DD0E051
:1016D0008E01015010406F2D615088E193E00E940F
:1016E0005C08F801E85EFC4F9081981709F052C041
:1016F000809118038093390380911903869586950C
:1017000080933A0390911B039093580320911C03FC
:10171000322F3695369530935903237020933B032F
:1017200020911D0320933C0380FF13C080915C0433
:10173000981781F580911E03882361F58091BA0383
:101740008B7F8093BA038091BA038E7F8093BA0314
:1017500021C087E08F15C0F42797D0933E03C09334
:101760003D0326E009C0F0E0E65CFC4F885E9C4F3C
:10177000DC018C9185832F5FE22FE650822F90E071
:101780008017910784F304C010923E0310923D032A
:101790000E944609DF91CF911F910F91FF9008950C
:1017A00080915C046DE047E753E00E94370508959F
:1017B0008091BA0382FF13C080911703833040F4F5
:1017C0000E94D00B809117038F5F809317030895B9
:1017D0008091BA038B7F8093BA0310921703089508
:1017E0001F93CF93DF93BB98BA98B998B89AC098D3
:1017F00080B5846080BD88B388BB84E690E00E9499
:10180000D21111E0B39B10E0D1E0B29BD0E0C1E077
:10181000B19BC0E0C09A84E690E00E94D211212FD3
:1018200030E081E090E0B39902C080E090E02817BA
:10183000390709F012E02D2F30E081E090E0B299F5
:1018400002C080E090E02817390709F0D2E02C2F81
:1018500030E081E090E0B19902C080E090E028178C
:10186000390709F0C2E0113011F1123069F0DD23BF
:1018700019F0D230D1F503C0C230B9F524C0CC2361
:1018800021F1C23091F523C0D13061F0D23029F07E
:10189000CC23F9F0C23049F51EC0CC23F1F0C130A1
:1018A00021F51DC0C230E9F0C130F9F41CC0D130BF
:1018B00039F0D230D1F4C230D1F0C130B1F419C016
:1018C000C23099F418C082E717C084E715C086E7D4
:1018D00013C088E711C08AE70FC08CE70DC08EE700
:1018E0000BC080E809C082E807C080E005C084E83A
:1018F00003C086E801C088E890B59B7F90BD88232F
:1019000009F480E7DF91CF911F9108950E94E104CF
:101910000E94F00B8093BB036FEF0E94F9048FE1EC
:1019200098E00E94020580E280935C0481E080934D
:101930001603109217030895282F30E0F90193E061
:10194000EE0FFF1F9A95E1F7E21BF30BE35AFB4FF3
:1019500094819230A9F0813051F0813018F08230BA
:1019600061F408C086B38095880F880B0895B59BF5
:1019700009C006C0B69B08C003C00E94B203089508
:1019800080E008958FEF08958FEF0895EF92FF9212
:101990000F931F93CF93DF930F92CDB7DEB7962FA0
:1019A000E82EFF24870123E0000F111F2A95E1F79D
:1019B000F801EE19FF09E35AFB4F2481223019F197
:1019C000813059F0813018F0823099F40CC06F3FAB
:1019D00011F4C79812C0C79A10C06F3F11F4C59890
:1019E0000CC0C59A0AC06F3F11F4C69806C0C69ACB
:1019F00004C099830E94B3039981F801EE19FF098D
:101A0000E35AFB4F90830F90DF91CF911F910F917D
:101A1000FF90EF900895CF938FEF80935D048093B4
:101A20005E0410925F04C1E0C0936004C09361043F
:101A300080E06FEF0E94C60C10926404109265045F
:101A40001092660482E080936704C093680481E08A
:101A500060E00E94C60C10926B0410926C0410920D
:101A60006D0483E080936E04C0936F0482E060E0B5
:101A70000E94C60C0E94B103CF910895EF92FF928D
:101A80000F931F93CF93DF930F92CDB7DEB7962FAF
:101A9000E82EFF24870133E0000F111F3A95E1F78C
:101AA000F801EE19FF09E35AFB4F2481213019F1A7
:101AB000813059F0813018F0823099F40CC06F3FBA
:101AC00011F4C79812C0C79A10C06F3F11F4C5989F
:101AD0000CC0C59A0AC06F3F11F4C69806C0C69ADA
:101AE00004C099830E94B4039981F801EE19FF099B
:101AF000E35AFB4F95830F90DF91CF911F910F9188
:101B0000FF90EF9008950F931F93CF93DF930F9261
:101B1000CDB7DEB7982F862F992309F056C06330D2
:101B200008F070C0942F91509A3F18F570E08B0127
:101B3000E3E0000F111FEA95E1F7061B170B035AAC
:101B40001B4FF8014183228392E0948395819F3F4C
:101B500041F460E049830E943E0D4981F8014683CB
:101B600053C06FEF29830E943E0D2981F80126831F
:101B70004BC09E3FA0F0262F30E0F90173E0EE0F3E
:101B8000FF1F7A95E1F7E21BF30BE35AFB4F41830A
:101B9000128292E09483642F0E943E0D35C04C3F28
:101BA00089F5262F30E0890163E0000F111F6A9547
:101BB000E1F7021B130B035A1B4FF80160810E94CF
:101BC000C60C81E0F80184831FC09130E9F470E015
:101BD000FB0153E0EE0FFF1F5A95E1F7E61BF70BF1
:101BE000EE58FB4F4183228392E09483442311F407
:101BF00060E005C04F3F11F46FEF01C061E00E944B
:101C0000B90302C08FEF01C080E00F90DF91CF9148
:101C10001F910F910895FA01882359F5633058F503
:101C200070E0DB0183E0AA0FBB1F8A95E1F7A61BDA
:101C3000B70BA35ABB4F14968C91149780838C9149
:101C40008183128213968C911397838314968C91BF
:101C50001497823091F411968C9111978483129687
:101C60008C911297858313968C911397868387E0C6
:101C7000089580E008958FEF089584E00895FB01B2
:101C800097E09083882319F483E0818301C0118257
:101C900082E00895FA01882319F46330F8F402C051
:101CA0008130F1F0613049F0613018F0623091F428
:101CB0000BC082E0808381E003C084E0808382E007
:101CC0008183828383E0089588E0808383E0818339
:101CD00082830895AF010E94610308958FEF0895F4
:101CE0008FEF0895809199038F5F809399030E94ED
:101CF0009C1080938004809199038436A1F4809194
:101D00007C04826080937C04109299038091790412
:101D1000882331F0815080937904109278040895DB
:101D200081E08093780408951ABA1BBA81EE87BBCC
:101D300018BA11BA12BA12B813B810926100109200
:101D400062000E9401030895CF93DF93282F30E0B3
:101D500020573040359527952066C4E8D1E0AEE79E
:101D6000B1E090E0E991F9913D91355034833381B0
:101D7000432F4150423010F4218703C0323109F41F
:101D800025879083118285839F5F963059F7DF9175
:101D9000CF910895CF93DF930E94AE038091830487
:101DA000823099F5E1EAF3E090E02BC0CD91DD912E
:101DB0002B812150223018F42F81291719F08F5FC1
:101DC0008630A1F7A82FB0E0AA0FBB1FAC57BE4FBB
:101DD0000D90BC91A02D1C962C911C97EF01239780
:101DE00028831D962C91DF0111972C93DF01159705
:101DF0001C92DF0114971C9280839F5F369695306A
:101E000021F0A4E8B1E080E0D1CF0E94D90380E0C6
:101E10000E94E3030E94E903DF91CF91089580912E
:101E2000B403813928F085E00E94740381E00895AD
:101E300080E008950F931F93CF93C82F082F10E0D1
:101E4000F801EE0FFF1FE00FF11FEE0FFF1FE4562A
:101E5000FC4F81818430B1F0853050F4813009F439
:101E600069C0813008F4A0C0823009F061C127C088
:101E7000803109F406C1803209F43DC1883009F08F
:101E800057C1C5C0A581B0E0AA0FBB1FAC57BE4F5C
:101E90000D90BC91A02D208130E097964C919797A2
:101EA0009B968C919B9790E0840F911D2817390782
:101EB0000CF43EC182E081838C2F65E037C1A5819F
:101EC000B0E0AA0FBB1FAC57BE4F0D90BC91A02D28
:101ED000908197968C919797891730F084E0818351
:101EE0008C2F64E00E94EC08F801EE0FFF1FE00F5A
:101EF000F11FEE0FFF1FE456FC4FA581B0E0AA0FC3
:101F0000BB1FAC57BE4F0D90BC91A02D208130E07F
:101F100098964C9198979B968C919B9790E0840F04
:101F2000911D821793070CF003C181E081838C2FF0
:101F300063E0FCC0A581B0E0AA0FBB1FAC57BE4F49
:101F40000D90BC91A02D908198968C9198978917AF
:101F500030F082E081838C2F62E00E94EC08F8016F
:101F6000EE0FFF1FE00FF11FEE0FFF1FE456FC4FB7
:101F7000A581B0E0AA0FBB1FAC57BE4F0D90BC911E
:101F8000A02D208130E099964C9199979B968C9149
:101F90009B9790E0840F911D821793070CF0C8C0A7
:101FA00011828C2F61E0C2C0A581B0E0AA0FBB1FD7
:101FB000AC57BE4F0D90BC91A02D908199968C91FD
:101FC0009997891730F081E081838C2F60E00E941F
:101FD000EC08F801EE0FFF1FE00FF11FEE0FFF1FDF
:101FE000E456FC4FA581B0E0AA0FBB1FAC57BE4F13
:101FF0000D90BC91A02D908196968C9196979817F4
:1020000008F496C088E081838C2F67E08FC0A5819B
:10201000B0E0AA0FBB1FAC57BE4F0D90BC91A02DD6
:10202000908195968C919597981730F080E18183F7
:102030008C2F69E00E94EC08F801EE0FFF1FE00F03
:10204000F11FEE0FFF1FE456FC4FA581B0E0AA0F71
:10205000BB1FAC57BE4F0D90BC91A02D208130E02E
:1020600096968C91969790E09A964C919A97841BAD
:102070009109281739070CF05BC011828C2F66E09C
:1020800055C0A581B0E0AA0FBB1FAC57BE4F0D9045
:10209000BC91A02D908194968C919497981730F0D4
:1020A00080E281838C2F6BE00E94EC08F801EE0F38
:1020B000FF1FE00FF11FEE0FFF1FE456FC4FA5813D
:1020C000B0E0AA0FBB1FAC57BE4F0D90BC91A02D26
:1020D000208130E095968C91959790E09A964C915E
:1020E0009A97841B91092817390714F588E0818392
:1020F0008C2F68E01BC0A581B0E0AA0FBB1FAC57B6
:10210000BE4F0D90BC91A02D208130E094968C9113
:10211000949790E09A964C919A97841B910928176E
:10212000390734F480E181838C2F6AE00E94EC0847
:10213000CF911F910F91089581E0829B80E00895D7
:10214000FC01662311F086E001C085E0808381E018
:10215000818382E00895CF93DF93FC01E9019181AF
:1021600080E0A081B0E0A82BB92BA730B105B8F56D
:102170004731A8F5613498F5FD01E258FE4F208102
:10218000261768F1842F90E0860F911D30E0281704
:1021900039072CF1CD0101968630910528F48A2F5C
:1021A0008F5F8883198203C08FEF8883898322968B
:1021B00080E090E0AA0FBB1FAC57BE4F70E00AC092
:1021C000ED91FC911197E80FF91FE60FF71F2081A1
:1021D000299301968417A0F3842F8E5F01C08FEF9F
:1021E000DF91CF910895CF93DF93DB0190E08530AD
:1021F00091050CF07CC0FC01EE0FFF1FE80FF91FEA
:10220000EE0FFF1FE456FC4FC581D0E0CC0FDD1F61
:10221000CC57DE4F0990D881C02D8B81813009F0D9
:1022200051C08FE38C93C581D0E0CC0FDD1FCC571C
:10223000DE4F0990D881C02D89A511968C931197F6
:10224000C581D0E0CC0FDD1FCC57DE4F0990D8817F
:10225000C02D88A512968C931297C581D0E0CC0F23
:10226000DD1FCC57DE4F0990D881C02D8FA113966A
:102270008C931397C581D0E0CC0FDD1FCC57DE4F78
:102280000990D881C02D8EA114968C931497C58186
:10229000D0E0CC0FDD1FCC57DE4F0990D881C02D88
:1022A0008DA115968C931597E581F0E0EE0FFF1F39
:1022B000EC57FE4F0190F081E02D84A116968C938F
:1022C000169713C01C9211961C92119712961C928D
:1022D000129713961C92139714961C9214971596A6
:1022E0001C92159716961C92169787E001C08FEFE7
:1022F000DF91CF910895AF92CF92EF920F9390E03C
:10230000853091051CF5FC01EE0FFF1FE80FF91F4A
:10231000EE0FFF1FE456FC4FE581F0E0EE0FFF1FCC
:10232000EC57FE4F0190F081E02D8381813081F4E4
:1023300060FD41A761FD20A762FD07A363FDE6A242
:1023400064FDC5A265FF04C0A4A202C08FEF01C056
:1023500080E00F91EF90CF90AF900895FB0190E057
:1023600085309105A4F4DC01AA0FBB1FA80FB91F8B
:10237000AA0FBB1FA456BC4F8C91808380EC818335
:1023800011968C9111978283138284E008958FEFC8
:102390000895FC018091AC0280838091AD0281831D
:1023A00082E00895039666E170E00E948E13CB01EF
:1023B000880F991F860F971F880F991F880F991FE5
:1023C00020E030E003C000002F5F3F4F281739079F
:1023D000D1F7089593B7987F982B93BF08951092E3
:1023E0009B0310929A0383B7886083BF83E00E94A7
:1023F000EA1112BE8CE881BF87B7826087BF08955B
:1024000090939B0380939A0308951F920F920FB6A7
:102410000F920BB60F9211242F933F934F935F931C
:102420006F937F938F939F93AF93BF93EF93FF939C
:10243000E0919A03F0919B030995FF91EF91BF9171
:10244000AF919F918F917F916F915F914F913F914C
:102450002F910F900BBE0F900FBE0F901F901895ED
:1024600010927C04109272040E94940E80E090E01E
:102470000E945C018F3F11F40E9475000E94D106FA
:102480000E940B0D459B09C082E0809383040E944B
:10249000860C8091BB030E94A40E479A0E94CA0E2C
:1024A0000E94EF1182E79EE00E9400122EE088E178
:1024B00090E00FB6F894A89581BD0FBE21BD0E9493
:1024C0009C108093800480939C03882311F481E006
:1024D00001C082E080939D03789401E015E0D4E090
:1024E000CAE083E0F82EA8950E94510B80917204F7
:1024F000833009F47BC0843030F48130C1F0823005
:1025000008F041C00AC0853009F4B5C0853008F430
:1025100083C0863009F0E3C0C8C082E060E00E945A
:10252000C60C80918304823009F0DBC05BC081E07F
:102530006FEF0E94C60C82E060E00E94C60C80E053
:102540006FEF0E94C60C86E00E94740360918004C5
:1025500080919C03681719F4662309F0C2C0609348
:102560009C03662349F481E080939D0382E080937D
:102570007204C093790403C082E080939D0380E0DD
:102580000E94EC08AEC0809178048130C1F480E0F4
:102590000E949C0C8F3F19F480E060E002C080E054
:1025A0006FEF0E94C60C10927804C0937904002348
:1025B00031F080E0609180040E94EC0800E00E940D
:1025C0000F0F882331F085E00E947403F0927204AB
:1025D00088C08091800490919C03891709F481C080
:1025E00080939C0381E0809372047BC080E060E074
:1025F0000E94C60C82E060E00E94C60C89B3809302
:10260000740491E09093730480937F040E94A60366
:10261000882311F0D093720480E060E00E94C60C21
:1026200081E060E00E94C60C82E06FEF0E94C60C61
:102630006091800480919C036817B1F060939C03C3
:10264000662331F481E080939D03D093720409C026
:1026500082E080939D03109372048093790410921A
:10266000780480E00E94EC080E940F0F8823C9F5CF
:102670001093720436C086E00E947403809178043F
:10268000813089F480E00E949C0C8F3F19F480E037
:1026900060E002C080E06FEF0E94C60C10927804E8
:1026A00082E08093790486E09ECF80917804813027
:1026B00089F480E00E949C0C8F3F19F480E060E078
:1026C00002C080E06FEF0E94C60C1092780482E096
:1026D000809379040E940F0F882319F483CF1092FE
:1026E000720480917C0481FF0CC00E94D80B0E9470
:1026F000380380917204843021F40E94B5030E9453
:10270000BE0310927C0485B7837E85BF85B7806247
:1027100085BF889585B78F7D85BFE5CEAA1BBB1B7E
:1027200051E107C0AA1FBB1FA617B70710F0A61BD1
:10273000B70B881F991F5A95A9F780959095BC01F2
:08274000CD010895F894FFCFCC
:10274800010019504A74C44345524ECE414D432DA1
:10275800474C494220626F617264C9303030303072
:1027680030303031C5414D432D47C0C10000010014
:1027780019C44345524EC8414D432D474C4942C5A3
:10278800414D432D47C23033CC30303030303030BB
:10279800303030303000C0C10000C0820600005A1E
:1027A800310016001E00000000C0821000005A31DF
:1027B800001900008001A498F300000000001D2CFF
:1027C8003D3E3D38AC02800243020502C80190013B
:1027D8000600510133000004C10003480201800AC9
:1027E800A87A3F3F000400004E0200040CD007A066
:1027F800B090FF00F7F2E96070800202000000C8A4
:10280800474C494220313256050051013800000337
:10281800C10003480101800A807A3838800100002D
:10282800010000000000071E28146400463C2D002B
:1028380000000202000000CD474C49422054656D5B
:1028480070526561720400510139000002C1000331
:10285800480101800A807A383880010000010000B0
:10286800000000071E28146400463C2D00000002EA
:1028780002000000CE474C49422054656D704672F4
:102888006F6E740300510138000001C10003480154
:1028980001800A807A3838800100000100000000B9
:1028A80000071E28146400463C2D000000020200A8
:1028B8000000CD474C49422054656D704650474151
:1028C8000000510227000000C1000342F20807007F
:1028D80007000700C000000100000000000000CC55
:1028E800474C494220486F74537761700100511278
:1028F8001800000029000000C10000CD4345524ED9
:0A29080020414D432D474C4942FF8A
:00000001FF
